{
  "_format": "hh3-artifact-1",
  "contractName": "DocumentRegistry",
  "sourceName": "contracts/DocumentRegistry.sol",
  "abi": [
    {
      "inputs": [],
      "stateMutability": "nonpayable",
      "type": "constructor"
    },
    {
      "anonymous": false,
      "inputs": [
        {
          "indexed": true,
          "internalType": "bytes32",
          "name": "docHash",
          "type": "bytes32"
        },
        {
          "indexed": true,
          "internalType": "address",
          "name": "uploader",
          "type": "address"
        },
        {
          "indexed": false,
          "internalType": "uint256",
          "name": "timestamp",
          "type": "uint256"
        }
      ],
      "name": "DocumentRegistered",
      "type": "event"
    },
    {
      "anonymous": false,
      "inputs": [
        {
          "indexed": true,
          "internalType": "bytes32",
          "name": "docHash",
          "type": "bytes32"
        },
        {
          "indexed": true,
          "internalType": "address",
          "name": "revokedBy",
          "type": "address"
        }
      ],
      "name": "DocumentRevoked",
      "type": "event"
    },
    {
      "inputs": [],
      "name": "documentCount",
      "outputs": [
        {
          "internalType": "uint256",
          "name": "",
          "type": "uint256"
        }
      ],
      "stateMutability": "view",
      "type": "function"
    },
    {
      "inputs": [
        {
          "internalType": "bytes32",
          "name": "docHash",
          "type": "bytes32"
        }
      ],
      "name": "getDocument",
      "outputs": [
        {
          "internalType": "address",
          "name": "uploader",
          "type": "address"
        },
        {
          "internalType": "string",
          "name": "metadataURI",
          "type": "string"
        },
        {
          "internalType": "uint256",
          "name": "timestamp",
          "type": "uint256"
        }
      ],
      "stateMutability": "view",
      "type": "function"
    },
    {
      "inputs": [
        {
          "internalType": "bytes32",
          "name": "docHash",
          "type": "bytes32"
        }
      ],
      "name": "isRegistered",
      "outputs": [
        {
          "internalType": "bool",
          "name": "",
          "type": "bool"
        }
      ],
      "stateMutability": "view",
      "type": "function"
    },
    {
      "inputs": [],
      "name": "owner",
      "outputs": [
        {
          "internalType": "address",
          "name": "",
          "type": "address"
        }
      ],
      "stateMutability": "view",
      "type": "function"
    },
    {
      "inputs": [
        {
          "internalType": "bytes32",
          "name": "docHash",
          "type": "bytes32"
        },
        {
          "internalType": "string",
          "name": "metadataURI",
          "type": "string"
        }
      ],
      "name": "registerDocument",
      "outputs": [],
      "stateMutability": "nonpayable",
      "type": "function"
    },
    {
      "inputs": [
        {
          "internalType": "bytes32",
          "name": "docHash",
          "type": "bytes32"
        }
      ],
      "name": "revokeDocument",
      "outputs": [],
      "stateMutability": "nonpayable",
      "type": "function"
    },
    {
      "inputs": [
        {
          "internalType": "address",
          "name": "newOwner",
          "type": "address"
        }
      ],
      "name": "transferOwnership",
      "outputs": [],
      "stateMutability": "nonpayable",
      "type": "function"
    }
  ],
  "bytecode": "0x6080604052348015600e575f5ffd5b50335f5f6101000a81548173ffffffffffffffffffffffffffffffffffffffff021916908373ffffffffffffffffffffffffffffffffffffffff1602179055506111c28061005b5f395ff3fe608060405234801561000f575f5ffd5b506004361061007b575f3560e01c8063a5b16b2e11610059578063a5b16b2e146100e9578063b10d6b4114610107578063f2fde38b14610139578063fa17185a146101555761007b565b806327258b221461007f5780638da5cb5b146100af578063952be80d146100cd575b5f5ffd5b610099600480360381019061009491906108ea565b610171565b6040516100a6919061092f565b60405180910390f35b6100b761019a565b6040516100c49190610987565b60405180910390f35b6100e760048036038101906100e291906108ea565b6101be565b005b6100f161036d565b6040516100fe91906109b8565b60405180910390f35b610121600480360381019061011c91906108ea565b610373565b60405161013093929190610a41565b60405180910390f35b610153600480360381019061014e9190610aa7565b6104af565b005b61016f600480360381019061016a9190610b33565b6105ed565b005b5f60025f8381526020019081526020015f206003015f9054906101000a900460ff169050919050565b5f5f9054906101000a900473ffffffffffffffffffffffffffffffffffffffff1681565b5f5f9054906101000a900473ffffffffffffffffffffffffffffffffffffffff1673ffffffffffffffffffffffffffffffffffffffff163373ffffffffffffffffffffffffffffffffffffffff161461024c576040517f08c379a000000000000000000000000000000000000000000000000000000000815260040161024390610bda565b60405180910390fd5b60025f8281526020019081526020015f206003015f9054906101000a900460ff166102ac576040517f08c379a00000000000000000000000000000000000000000000000000000000081526004016102a390610c42565b60405180910390fd5b60025f8281526020019081526020015f205f5f82015f6101000a81549073ffffffffffffffffffffffffffffffffffffffff0219169055600182015f6102f29190610857565b600282015f9055600382015f6101000a81549060ff021916905550506001805f82825461031f9190610c8d565b925050819055503373ffffffffffffffffffffffffffffffffffffffff16817f0a7643bfbd115d98595cc7bd15944172c7ef0e4a7f48dcaf676dec4b74be936760405160405180910390a350565b60015481565b5f60605f60025f8581526020019081526020015f206003015f9054906101000a900460ff166103d7576040517f08c379a00000000000000000000000000000000000000000000000000000000081526004016103ce90610c42565b60405180910390fd5b5f60025f8681526020019081526020015f209050805f015f9054906101000a900473ffffffffffffffffffffffffffffffffffffffff1681600101826002015481805461042390610ced565b80601f016020809104026020016040519081016040528092919081815260200182805461044f90610ced565b801561049a5780601f106104715761010080835404028352916020019161049a565b820191905f5260205f20905b81548152906001019060200180831161047d57829003601f168201915b50505050509150935093509350509193909250565b5f5f9054906101000a900473ffffffffffffffffffffffffffffffffffffffff1673ffffffffffffffffffffffffffffffffffffffff163373ffffffffffffffffffffffffffffffffffffffff161461053d576040517f08c379a000000000000000000000000000000000000000000000000000000000815260040161053490610bda565b60405180910390fd5b5f73ffffffffffffffffffffffffffffffffffffffff168173ffffffffffffffffffffffffffffffffffffffff16036105ab576040517f08c379a00000000000000000000000000000000000000000000000000000000081526004016105a290610d67565b60405180910390fd5b805f5f6101000a81548173ffffffffffffffffffffffffffffffffffffffff021916908373ffffffffffffffffffffffffffffffffffffffff16021790555050565b5f5f1b8303610631576040517f08c379a000000000000000000000000000000000000000000000000000000000815260040161062890610dcf565b60405180910390fd5b60025f8481526020019081526020015f206003015f9054906101000a900460ff1615610692576040517f08c379a000000000000000000000000000000000000000000000000000000000815260040161068990610e37565b60405180910390fd5b5f82829050116106d7576040517f08c379a00000000000000000000000000000000000000000000000000000000081526004016106ce90610e9f565b60405180910390fd5b60405180608001604052803373ffffffffffffffffffffffffffffffffffffffff16815260200183838080601f0160208091040260200160405190810160405280939291908181526020018383808284375f81840152601f19601f8201169050808301925050505050505081526020014281526020016001151581525060025f8581526020019081526020015f205f820151815f015f6101000a81548173ffffffffffffffffffffffffffffffffffffffff021916908373ffffffffffffffffffffffffffffffffffffffff16021790555060208201518160010190816107be919061108a565b50604082015181600201556060820151816003015f6101000a81548160ff0219169083151502179055509050506001805f8282546107fc9190611159565b925050819055503373ffffffffffffffffffffffffffffffffffffffff16837f6569e54c43a697fc61e67763858d5abef16899d2b13215c7c07090aa878b24a84260405161084a91906109b8565b60405180910390a3505050565b50805461086390610ced565b5f825580601f106108745750610891565b601f0160209004905f5260205f20908101906108909190610894565b5b50565b5b808211156108ab575f815f905550600101610895565b5090565b5f5ffd5b5f5ffd5b5f819050919050565b6108c9816108b7565b81146108d3575f5ffd5b50565b5f813590506108e4816108c0565b92915050565b5f602082840312156108ff576108fe6108af565b5b5f61090c848285016108d6565b91505092915050565b5f8115159050919050565b61092981610915565b82525050565b5f6020820190506109425f830184610920565b92915050565b5f73ffffffffffffffffffffffffffffffffffffffff82169050919050565b5f61097182610948565b9050919050565b61098181610967565b82525050565b5f60208201905061099a5f830184610978565b92915050565b5f819050919050565b6109b2816109a0565b82525050565b5f6020820190506109cb5f8301846109a9565b92915050565b5f81519050919050565b5f82825260208201905092915050565b8281835e5f83830152505050565b5f601f19601f8301169050919050565b5f610a13826109d1565b610a1d81856109db565b9350610a2d8185602086016109eb565b610a36816109f9565b840191505092915050565b5f606082019050610a545f830186610978565b8181036020830152610a668185610a09565b9050610a7560408301846109a9565b949350505050565b610a8681610967565b8114610a90575f5ffd5b50565b5f81359050610aa181610a7d565b92915050565b5f60208284031215610abc57610abb6108af565b5b5f610ac984828501610a93565b91505092915050565b5f5ffd5b5f5ffd5b5f5ffd5b5f5f83601f840112610af357610af2610ad2565b5b8235905067ffffffffffffffff811115610b1057610b0f610ad6565b5b602083019150836001820283011115610b2c57610b2b610ada565b5b9250929050565b5f5f5f60408486031215610b4a57610b496108af565b5b5f610b57868287016108d6565b935050602084013567ffffffffffffffff811115610b7857610b776108b3565b5b610b8486828701610ade565b92509250509250925092565b7f4e6f7420617574686f72697a65643a206f776e6572206f6e6c790000000000005f82015250565b5f610bc4601a836109db565b9150610bcf82610b90565b602082019050919050565b5f6020820190508181035f830152610bf181610bb8565b9050919050565b7f446f63756d656e74206e6f7420666f756e6400000000000000000000000000005f82015250565b5f610c2c6012836109db565b9150610c3782610bf8565b602082019050919050565b5f6020820190508181035f830152610c5981610c20565b9050919050565b7f4e487b71000000000000000000000000000000000000000000000000000000005f52601160045260245ffd5b5f610c97826109a0565b9150610ca2836109a0565b9250828203905081811115610cba57610cb9610c60565b5b92915050565b7f4e487b71000000000000000000000000000000000000000000000000000000005f52602260045260245ffd5b5f6002820490506001821680610d0457607f821691505b602082108103610d1757610d16610cc0565b5b50919050565b7f496e76616c6964206164647265737300000000000000000000000000000000005f82015250565b5f610d51600f836109db565b9150610d5c82610d1d565b602082019050919050565b5f6020820190508181035f830152610d7e81610d45565b9050919050565b7f496e76616c6964206861736800000000000000000000000000000000000000005f82015250565b5f610db9600c836109db565b9150610dc482610d85565b602082019050919050565b5f6020820190508181035f830152610de681610dad565b9050919050565b7f446f63756d656e7420616c7265616479207265676973746572656400000000005f82015250565b5f610e21601b836109db565b9150610e2c82610ded565b602082019050919050565b5f6020820190508181035f830152610e4e81610e15565b9050919050565b7f4d657461646174612055524920726571756972656400000000000000000000005f82015250565b5f610e896015836109db565b9150610e9482610e55565b602082019050919050565b5f6020820190508181035f830152610eb681610e7d565b9050919050565b7f4e487b71000000000000000000000000000000000000000000000000000000005f52604160045260245ffd5b5f819050815f5260205f209050919050565b5f6020601f8301049050919050565b5f82821b905092915050565b5f60088302610f467fffffffffffffffffffffffffffffffffffffffffffffffffffffffffffffffff82610f0b565b610f508683610f0b565b95508019841693508086168417925050509392505050565b5f819050919050565b5f610f8b610f86610f81846109a0565b610f68565b6109a0565b9050919050565b5f819050919050565b610fa483610f71565b610fb8610fb082610f92565b848454610f17565b825550505050565b5f5f905090565b610fcf610fc0565b610fda818484610f9b565b505050565b5b81811015610ffd57610ff25f82610fc7565b600181019050610fe0565b5050565b601f8211156110425761101381610eea565b61101c84610efc565b8101602085101561102b578190505b61103f61103785610efc565b830182610fdf565b50505b505050565b5f82821c905092915050565b5f6110625f1984600802611047565b1980831691505092915050565b5f61107a8383611053565b9150826002028217905092915050565b611093826109d1565b67ffffffffffffffff8111156110ac576110ab610ebd565b5b6110b68254610ced565b6110c1828285611001565b5f60209050601f8311600181146110f2575f84156110e0578287015190505b6110ea858261106f565b865550611151565b601f19841661110086610eea565b5f5b8281101561112757848901518255600182019150602085019450602081019050611102565b868310156111445784890151611140601f891682611053565b8355505b6001600288020188555050505b505050505050565b5f611163826109a0565b915061116e836109a0565b925082820190508082111561118657611185610c60565b5b9291505056fea2646970667358221220d9dae30d0e27275f613edd09df9216188eb7acca55fca971f61a7c6787d175f864736f6c634300081c0033",
  "linkReferences": {},
  "deployedLinkReferences": {},
  "immutableReferences": {},
  "inputSourceName": "project/contracts/DocumentRegistry.sol",
  "buildInfoId": "solc-0_8_28-9ea7b03656c3b35d16d5b0f6255307157b9e9606"
}