{
  "_format": "hh3-artifact-1",
  "contractName": "DocumentRegistryFactory",
  "sourceName": "contracts/DocumentRegistryFactory.sol",
  "abi": [
    {
      "anonymous": false,
      "inputs": [
        {
          "indexed": true,
          "internalType": "address",
          "name": "registry",
          "type": "address"
        },
        {
          "indexed": true,
          "internalType": "address",
          "name": "creator",
          "type": "address"
        },
        {
          "indexed": false,
          "internalType": "string",
          "name": "name",
          "type": "string"
        },
        {
          "indexed": false,
          "internalType": "string",
          "name": "metadataURI",
          "type": "string"
        },
        {
          "indexed": false,
          "internalType": "uint256",
          "name": "timestamp",
          "type": "uint256"
        }
      ],
      "name": "RegistryCreated",
      "type": "event"
    },
    {
      "anonymous": false,
      "inputs": [
        {
          "indexed": true,
          "internalType": "address",
          "name": "registry",
          "type": "address"
        },
        {
          "indexed": true,
          "internalType": "address",
          "name": "importer",
          "type": "address"
        },
        {
          "indexed": false,
          "internalType": "string",
          "name": "name",
          "type": "string"
        },
        {
          "indexed": false,
          "internalType": "string",
          "name": "metadataURI",
          "type": "string"
        },
        {
          "indexed": false,
          "internalType": "uint256",
          "name": "timestamp",
          "type": "uint256"
        }
      ],
      "name": "RegistryImported",
      "type": "event"
    },
    {
      "inputs": [
        {
          "internalType": "string",
          "name": "name",
          "type": "string"
        },
        {
          "internalType": "string",
          "name": "metadataURI",
          "type": "string"
        }
      ],
      "name": "createRegistry",
      "outputs": [
        {
          "internalType": "address",
          "name": "registryAddress",
          "type": "address"
        }
      ],
      "stateMutability": "nonpayable",
      "type": "function"
    },
    {
      "inputs": [
        {
          "internalType": "uint256",
          "name": "offset",
          "type": "uint256"
        },
        {
          "internalType": "uint256",
          "name": "limit",
          "type": "uint256"
        }
      ],
      "name": "getRegistries",
      "outputs": [
        {
          "components": [
            {
              "internalType": "address",
              "name": "registry",
              "type": "address"
            },
            {
              "internalType": "address",
              "name": "creator",
              "type": "address"
            },
            {
              "internalType": "string",
              "name": "name",
              "type": "string"
            },
            {
              "internalType": "string",
              "name": "metadataURI",
              "type": "string"
            },
            {
              "internalType": "uint256",
              "name": "createdAt",
              "type": "uint256"
            }
          ],
          "internalType": "struct DocumentRegistryFactory.RegistryInfo[]",
          "name": "page",
          "type": "tuple[]"
        }
      ],
      "stateMutability": "view",
      "type": "function"
    },
    {
      "inputs": [
        {
          "internalType": "uint256",
          "name": "index",
          "type": "uint256"
        }
      ],
      "name": "getRegistry",
      "outputs": [
        {
          "components": [
            {
              "internalType": "address",
              "name": "registry",
              "type": "address"
            },
            {
              "internalType": "address",
              "name": "creator",
              "type": "address"
            },
            {
              "internalType": "string",
              "name": "name",
              "type": "string"
            },
            {
              "internalType": "string",
              "name": "metadataURI",
              "type": "string"
            },
            {
              "internalType": "uint256",
              "name": "createdAt",
              "type": "uint256"
            }
          ],
          "internalType": "struct DocumentRegistryFactory.RegistryInfo",
          "name": "",
          "type": "tuple"
        }
      ],
      "stateMutability": "view",
      "type": "function"
    },
    {
      "inputs": [
        {
          "internalType": "address",
          "name": "registry",
          "type": "address"
        },
        {
          "internalType": "string",
          "name": "name",
          "type": "string"
        },
        {
          "internalType": "string",
          "name": "metadataURI",
          "type": "string"
        }
      ],
      "name": "importRegistry",
      "outputs": [],
      "stateMutability": "nonpayable",
      "type": "function"
    },
    {
      "inputs": [
        {
          "internalType": "address",
          "name": "",
          "type": "address"
        }
      ],
      "name": "isCataloged",
      "outputs": [
        {
          "internalType": "bool",
          "name": "",
          "type": "bool"
        }
      ],
      "stateMutability": "view",
      "type": "function"
    },
    {
      "inputs": [],
      "name": "registryCount",
      "outputs": [
        {
          "internalType": "uint256",
          "name": "",
          "type": "uint256"
        }
      ],
      "stateMutability": "view",
      "type": "function"
    }
  ],
  "bytecode": "0x6080604052348015600e575f5ffd5b50612e668061001c5f395ff3fe608060405234801561000f575f5ffd5b5060043610610060575f3560e01c8063193c045e1461006457806346d62b0b146100945780636defbd4b146100c457806394541af0146100e0578063cbb8343414610110578063ec90622b1461012e575b5f5ffd5b61007e60048036038101906100799190610de6565b61015e565b60405161008b9190610f49565b60405180910390f35b6100ae60048036038101906100a99190610f93565b6103b0565b6040516100bb9190610fd8565b60405180910390f35b6100de60048036038101906100d99190611052565b6103cd565b005b6100fa60048036038101906100f591906110e3565b610684565b6040516101079190611170565b60405180910390f35b61011861074a565b6040516101259190611198565b60405180910390f35b610148600480360381019061014391906111b1565b610755565b6040516101559190611324565b60405180910390f35b610166610d46565b5f8054905082106101ac576040517f08c379a00000000000000000000000000000000000000000000000000000000081526004016101a39061139e565b60405180910390fd5b5f82815481106101bf576101be6113bc565b5b905f5260205f2090600502016040518060a00160405290815f82015f9054906101000a900473ffffffffffffffffffffffffffffffffffffffff1673ffffffffffffffffffffffffffffffffffffffff1673ffffffffffffffffffffffffffffffffffffffff168152602001600182015f9054906101000a900473ffffffffffffffffffffffffffffffffffffffff1673ffffffffffffffffffffffffffffffffffffffff1673ffffffffffffffffffffffffffffffffffffffff16815260200160028201805461028f90611416565b80601f01602080910402602001604051908101604052809291908181526020018280546102bb90611416565b80156103065780601f106102dd57610100808354040283529160200191610306565b820191905f5260205f20905b8154815290600101906020018083116102e957829003601f168201915b5050505050815260200160038201805461031f90611416565b80601f016020809104026020016040519081016040528092919081815260200182805461034b90611416565b80156103965780601f1061036d57610100808354040283529160200191610396565b820191905f5260205f20905b81548152906001019060200180831161037957829003601f168201915b505050505081526020016004820154815250509050919050565b6001602052805f5260405f205f915054906101000a900460ff1681565b6103d78484610a96565b5f8573ffffffffffffffffffffffffffffffffffffffff163b11610430576040517f08c379a000000000000000000000000000000000000000000000000000000000815260040161042790611490565b60405180910390fd5b60015f8673ffffffffffffffffffffffffffffffffffffffff1673ffffffffffffffffffffffffffffffffffffffff1681526020019081526020015f205f9054906101000a900460ff16156104ba576040517f08c379a00000000000000000000000000000000000000000000000000000000081526004016104b1906114f8565b60405180910390fd5b3373ffffffffffffffffffffffffffffffffffffffff168573ffffffffffffffffffffffffffffffffffffffff16638da5cb5b6040518163ffffffff1660e01b8152600401602060405180830381865afa15801561051a573d5f5f3e3d5ffd5b505050506040513d601f19601f8201168201806040525081019061053e919061152a565b73ffffffffffffffffffffffffffffffffffffffff1614610594576040517f08c379a000000000000000000000000000000000000000000000000000000000815260040161058b9061159f565b60405180910390fd5b8473ffffffffffffffffffffffffffffffffffffffff1663a5b16b2e6040518163ffffffff1660e01b8152600401602060405180830381865afa1580156105dd573d5f5f3e3d5ffd5b505050506040513d601f19601f8201168201806040525081019061060191906115d1565b50610610853386868686610b28565b3373ffffffffffffffffffffffffffffffffffffffff168573ffffffffffffffffffffffffffffffffffffffff167f7e8822b9983b9517d797f51ac19669d868a8c40dd53f1e975c0222419671fca58686868642604051610675959493929190611636565b60405180910390a35050505050565b5f61068f8585610a96565b5f3360405161069d90610d9e565b6106a79190611170565b604051809103905ff0801580156106c0573d5f5f3e3d5ffd5b5090508091506106d4823388888888610b28565b3373ffffffffffffffffffffffffffffffffffffffff168273ffffffffffffffffffffffffffffffffffffffff167fbf004ab79ac4930a6553b9b4f91c7c0bc82bc77b1989f9f2d31c1e5ff66e308a8888888842604051610739959493929190611636565b60405180910390a350949350505050565b5f5f80549050905090565b60605f805490508310158061076957505f82145b156107c9575f67ffffffffffffffff8111156107885761078761167d565b5b6040519080825280602002602001820160405280156107c157816020015b6107ae610d46565b8152602001906001900390816107a65790505b509050610a90565b5f82846107d691906116d7565b90505f805490508111156107ec575f8054905090505b83816107f8919061170a565b67ffffffffffffffff8111156108115761081061167d565b5b60405190808252806020026020018201604052801561084a57816020015b610837610d46565b81526020019060019003908161082f5790505b5091505f8490505b81811015610a8d575f818154811061086d5761086c6113bc565b5b905f5260205f2090600502016040518060a00160405290815f82015f9054906101000a900473ffffffffffffffffffffffffffffffffffffffff1673ffffffffffffffffffffffffffffffffffffffff1673ffffffffffffffffffffffffffffffffffffffff168152602001600182015f9054906101000a900473ffffffffffffffffffffffffffffffffffffffff1673ffffffffffffffffffffffffffffffffffffffff1673ffffffffffffffffffffffffffffffffffffffff16815260200160028201805461093d90611416565b80601f016020809104026020016040519081016040528092919081815260200182805461096990611416565b80156109b45780601f1061098b576101008083540402835291602001916109b4565b820191905f5260205f20905b81548152906001019060200180831161099757829003601f168201915b505050505081526020016003820180546109cd90611416565b80601f01602080910402602001604051908101604052809291908181526020018280546109f990611416565b8015610a445780601f10610a1b57610100808354040283529160200191610a44565b820191905f5260205f20905b815481529060010190602001808311610a2757829003601f168201915b50505050508152602001600482015481525050838683610a64919061170a565b81518110610a7557610a746113bc565b5b60200260200101819052508080600101915050610852565b50505b92915050565b5f8282905090505f8111610adf576040517f08c379a0000000000000000000000000000000000000000000000000000000008152600401610ad690611787565b60405180910390fd5b6050811115610b23576040517f08c379a0000000000000000000000000000000000000000000000000000000008152600401610b1a906117ef565b60405180910390fd5b505050565b6001805f8873ffffffffffffffffffffffffffffffffffffffff1673ffffffffffffffffffffffffffffffffffffffff1681526020019081526020015f205f6101000a81548160ff0219169083151502179055505f6040518060a001604052808873ffffffffffffffffffffffffffffffffffffffff1681526020018773ffffffffffffffffffffffffffffffffffffffff16815260200186868080601f0160208091040260200160405190810160405280939291908181526020018383808284375f81840152601f19601f82011690508083019250505050505050815260200184848080601f0160208091040260200160405190810160405280939291908181526020018383808284375f81840152601f19601f82011690508083019250505050505050815260200142815250908060018154018082558091505060019003905f5260205f2090600502015f909190919091505f820151815f015f6101000a81548173ffffffffffffffffffffffffffffffffffffffff021916908373ffffffffffffffffffffffffffffffffffffffff1602179055506020820151816001015f6101000a81548173ffffffffffffffffffffffffffffffffffffffff021916908373ffffffffffffffffffffffffffffffffffffffff1602179055506040820151816002019081610d1b91906119ad565b506060820151816003019081610d3191906119ad565b50608082015181600401555050505050505050565b6040518060a001604052805f73ffffffffffffffffffffffffffffffffffffffff1681526020015f73ffffffffffffffffffffffffffffffffffffffff16815260200160608152602001606081526020015f81525090565b6113b480611a7d83390190565b5f5ffd5b5f5ffd5b5f819050919050565b610dc581610db3565b8114610dcf575f5ffd5b50565b5f81359050610de081610dbc565b92915050565b5f60208284031215610dfb57610dfa610dab565b5b5f610e0884828501610dd2565b91505092915050565b5f73ffffffffffffffffffffffffffffffffffffffff82169050919050565b5f610e3a82610e11565b9050919050565b610e4a81610e30565b82525050565b5f81519050919050565b5f82825260208201905092915050565b8281835e5f83830152505050565b5f601f19601f8301169050919050565b5f610e9282610e50565b610e9c8185610e5a565b9350610eac818560208601610e6a565b610eb581610e78565b840191505092915050565b610ec981610db3565b82525050565b5f60a083015f830151610ee45f860182610e41565b506020830151610ef76020860182610e41565b5060408301518482036040860152610f0f8282610e88565b91505060608301518482036060860152610f298282610e88565b9150506080830151610f3e6080860182610ec0565b508091505092915050565b5f6020820190508181035f830152610f618184610ecf565b905092915050565b610f7281610e30565b8114610f7c575f5ffd5b50565b5f81359050610f8d81610f69565b92915050565b5f60208284031215610fa857610fa7610dab565b5b5f610fb584828501610f7f565b91505092915050565b5f8115159050919050565b610fd281610fbe565b82525050565b5f602082019050610feb5f830184610fc9565b92915050565b5f5ffd5b5f5ffd5b5f5ffd5b5f5f83601f84011261101257611011610ff1565b5b8235905067ffffffffffffffff81111561102f5761102e610ff5565b5b60208301915083600182028301111561104b5761104a610ff9565b5b9250929050565b5f5f5f5f5f6060868803121561106b5761106a610dab565b5b5f61107888828901610f7f565b955050602086013567ffffffffffffffff81111561109957611098610daf565b5b6110a588828901610ffd565b9450945050604086013567ffffffffffffffff8111156110c8576110c7610daf565b5b6110d488828901610ffd565b92509250509295509295909350565b5f5f5f5f604085870312156110fb576110fa610dab565b5b5f85013567ffffffffffffffff81111561111857611117610daf565b5b61112487828801610ffd565b9450945050602085013567ffffffffffffffff81111561114757611146610daf565b5b61115387828801610ffd565b925092505092959194509250565b61116a81610e30565b82525050565b5f6020820190506111835f830184611161565b92915050565b61119281610db3565b82525050565b5f6020820190506111ab5f830184611189565b92915050565b5f5f604083850312156111c7576111c6610dab565b5b5f6111d485828601610dd2565b92505060206111e585828601610dd2565b9150509250929050565b5f81519050919050565b5f82825260208201905092915050565b5f819050602082019050919050565b5f60a083015f83015161122d5f860182610e41565b5060208301516112406020860182610e41565b50604083015184820360408601526112588282610e88565b915050606083015184820360608601526112728282610e88565b91505060808301516112876080860182610ec0565b508091505092915050565b5f61129d8383611218565b905092915050565b5f602082019050919050565b5f6112bb826111ef565b6112c581856111f9565b9350836020820285016112d785611209565b805f5b8581101561131257848403895281516112f38582611292565b94506112fe836112a5565b925060208a019950506001810190506112da565b50829750879550505050505092915050565b5f6020820190508181035f83015261133c81846112b1565b905092915050565b5f82825260208201905092915050565b7f526567697374727920696e646578206f7574206f6620626f756e6473000000005f82015250565b5f611388601c83611344565b915061139382611354565b602082019050919050565b5f6020820190508181035f8301526113b58161137c565b9050919050565b7f4e487b71000000000000000000000000000000000000000000000000000000005f52603260045260245ffd5b7f4e487b71000000000000000000000000000000000000000000000000000000005f52602260045260245ffd5b5f600282049050600182168061142d57607f821691505b6020821081036114405761143f6113e9565b5b50919050565b7f5265676973747279206d757374206265206120636f6e747261637400000000005f82015250565b5f61147a601b83611344565b915061148582611446565b602082019050919050565b5f6020820190508181035f8301526114a78161146e565b9050919050565b7f526567697374727920616c726561647920636174616c6f6765640000000000005f82015250565b5f6114e2601a83611344565b91506114ed826114ae565b602082019050919050565b5f6020820190508181035f83015261150f816114d6565b9050919050565b5f8151905061152481610f69565b92915050565b5f6020828403121561153f5761153e610dab565b5b5f61154c84828501611516565b91505092915050565b7f5265676973747279206f776e6572206f6e6c79000000000000000000000000005f82015250565b5f611589601383611344565b915061159482611555565b602082019050919050565b5f6020820190508181035f8301526115b68161157d565b9050919050565b5f815190506115cb81610dbc565b92915050565b5f602082840312156115e6576115e5610dab565b5b5f6115f3848285016115bd565b91505092915050565b828183375f83830152505050565b5f6116158385611344565b93506116228385846115fc565b61162b83610e78565b840190509392505050565b5f6060820190508181035f83015261164f81878961160a565b9050818103602083015261166481858761160a565b90506116736040830184611189565b9695505050505050565b7f4e487b71000000000000000000000000000000000000000000000000000000005f52604160045260245ffd5b7f4e487b71000000000000000000000000000000000000000000000000000000005f52601160045260245ffd5b5f6116e182610db3565b91506116ec83610db3565b9250828201905080821115611704576117036116aa565b5b92915050565b5f61171482610db3565b915061171f83610db3565b9250828203905081811115611737576117366116aa565b5b92915050565b7f5265676973747279206e616d65207265717569726564000000000000000000005f82015250565b5f611771601683611344565b915061177c8261173d565b602082019050919050565b5f6020820190508181035f83015261179e81611765565b9050919050565b7f5265676973747279206e616d6520746f6f206c6f6e67000000000000000000005f82015250565b5f6117d9601683611344565b91506117e4826117a5565b602082019050919050565b5f6020820190508181035f830152611806816117cd565b9050919050565b5f819050815f5260205f209050919050565b5f6020601f8301049050919050565b5f82821b905092915050565b5f600883026118697fffffffffffffffffffffffffffffffffffffffffffffffffffffffffffffffff8261182e565b611873868361182e565b95508019841693508086168417925050509392505050565b5f819050919050565b5f6118ae6118a96118a484610db3565b61188b565b610db3565b9050919050565b5f819050919050565b6118c783611894565b6118db6118d3826118b5565b84845461183a565b825550505050565b5f5f905090565b6118f26118e3565b6118fd8184846118be565b505050565b5b81811015611920576119155f826118ea565b600181019050611903565b5050565b601f821115611965576119368161180d565b61193f8461181f565b8101602085101561194e578190505b61196261195a8561181f565b830182611902565b50505b505050565b5f82821c905092915050565b5f6119855f198460080261196a565b1980831691505092915050565b5f61199d8383611976565b9150826002028217905092915050565b6119b682610e50565b67ffffffffffffffff8111156119cf576119ce61167d565b5b6119d98254611416565b6119e4828285611924565b5f60209050601f831160018114611a15575f8415611a03578287015190505b611a0d8582611992565b865550611a74565b601f198416611a238661180d565b5f5b82811015611a4a57848901518255600182019150602085019450602081019050611a25565b86831015611a675784890151611a63601f891682611976565b8355505b6001600288020188555050505b50505050505056fe608060405234801561000f575f5ffd5b506040516113b43803806113b483398181016040528101906100319190610142565b5f73ffffffffffffffffffffffffffffffffffffffff168173ffffffffffffffffffffffffffffffffffffffff160361009f576040517f08c379a0000000000000000000000000000000000000000000000000000000008152600401610096906101c7565b60405180910390fd5b805f5f6101000a81548173ffffffffffffffffffffffffffffffffffffffff021916908373ffffffffffffffffffffffffffffffffffffffff160217905550506101e5565b5f5ffd5b5f73ffffffffffffffffffffffffffffffffffffffff82169050919050565b5f610111826100e8565b9050919050565b61012181610107565b811461012b575f5ffd5b50565b5f8151905061013c81610118565b92915050565b5f60208284031215610157576101566100e4565b5b5f6101648482850161012e565b91505092915050565b5f82825260208201905092915050565b7f496e76616c6964206f776e6572000000000000000000000000000000000000005f82015250565b5f6101b1600d8361016d565b91506101bc8261017d565b602082019050919050565b5f6020820190508181035f8301526101de816101a5565b9050919050565b6111c2806101f25f395ff3fe608060405234801561000f575f5ffd5b506004361061007b575f3560e01c8063a5b16b2e11610059578063a5b16b2e146100e9578063b10d6b4114610107578063f2fde38b14610139578063fa17185a146101555761007b565b806327258b221461007f5780638da5cb5b146100af578063952be80d146100cd575b5f5ffd5b610099600480360381019061009491906108ea565b610171565b6040516100a6919061092f565b60405180910390f35b6100b761019a565b6040516100c49190610987565b60405180910390f35b6100e760048036038101906100e291906108ea565b6101be565b005b6100f161036d565b6040516100fe91906109b8565b60405180910390f35b610121600480360381019061011c91906108ea565b610373565b60405161013093929190610a41565b60405180910390f35b610153600480360381019061014e9190610aa7565b6104af565b005b61016f600480360381019061016a9190610b33565b6105ed565b005b5f60025f8381526020019081526020015f206003015f9054906101000a900460ff169050919050565b5f5f9054906101000a900473ffffffffffffffffffffffffffffffffffffffff1681565b5f5f9054906101000a900473ffffffffffffffffffffffffffffffffffffffff1673ffffffffffffffffffffffffffffffffffffffff163373ffffffffffffffffffffffffffffffffffffffff161461024c576040517f08c379a000000000000000000000000000000000000000000000000000000000815260040161024390610bda565b60405180910390fd5b60025f8281526020019081526020015f206003015f9054906101000a900460ff166102ac576040517f08c379a00000000000000000000000000000000000000000000000000000000081526004016102a390610c42565b60405180910390fd5b60025f8281526020019081526020015f205f5f82015f6101000a81549073ffffffffffffffffffffffffffffffffffffffff0219169055600182015f6102f29190610857565b600282015f9055600382015f6101000a81549060ff021916905550506001805f82825461031f9190610c8d565b925050819055503373ffffffffffffffffffffffffffffffffffffffff16817f0a7643bfbd115d98595cc7bd15944172c7ef0e4a7f48dcaf676dec4b74be936760405160405180910390a350565b60015481565b5f60605f60025f8581526020019081526020015f206003015f9054906101000a900460ff166103d7576040517f08c379a00000000000000000000000000000000000000000000000000000000081526004016103ce90610c42565b60405180910390fd5b5f60025f8681526020019081526020015f209050805f015f9054906101000a900473ffffffffffffffffffffffffffffffffffffffff1681600101826002015481805461042390610ced565b80601f016020809104026020016040519081016040528092919081815260200182805461044f90610ced565b801561049a5780601f106104715761010080835404028352916020019161049a565b820191905f5260205f20905b81548152906001019060200180831161047d57829003601f168201915b50505050509150935093509350509193909250565b5f5f9054906101000a900473ffffffffffffffffffffffffffffffffffffffff1673ffffffffffffffffffffffffffffffffffffffff163373ffffffffffffffffffffffffffffffffffffffff161461053d576040517f08c379a000000000000000000000000000000000000000000000000000000000815260040161053490610bda565b60405180910390fd5b5f73ffffffffffffffffffffffffffffffffffffffff168173ffffffffffffffffffffffffffffffffffffffff16036105ab576040517f08c379a00000000000000000000000000000000000000000000000000000000081526004016105a290610d67565b60405180910390fd5b805f5f6101000a81548173ffffffffffffffffffffffffffffffffffffffff021916908373ffffffffffffffffffffffffffffffffffffffff16021790555050565b5f5f1b8303610631576040517f08c379a000000000000000000000000000000000000000000000000000000000815260040161062890610dcf565b60405180910390fd5b60025f8481526020019081526020015f206003015f9054906101000a900460ff1615610692576040517f08c379a000000000000000000000000000000000000000000000000000000000815260040161068990610e37565b60405180910390fd5b5f82829050116106d7576040517f08c379a00000000000000000000000000000000000000000000000000000000081526004016106ce90610e9f565b60405180910390fd5b60405180608001604052803373ffffffffffffffffffffffffffffffffffffffff16815260200183838080601f0160208091040260200160405190810160405280939291908181526020018383808284375f81840152601f19601f8201169050808301925050505050505081526020014281526020016001151581525060025f8581526020019081526020015f205f820151815f015f6101000a81548173ffffffffffffffffffffffffffffffffffffffff021916908373ffffffffffffffffffffffffffffffffffffffff16021790555060208201518160010190816107be919061108a565b50604082015181600201556060820151816003015f6101000a81548160ff0219169083151502179055509050506001805f8282546107fc9190611159565b925050819055503373ffffffffffffffffffffffffffffffffffffffff16837f6569e54c43a697fc61e67763858d5abef16899d2b13215c7c07090aa878b24a84260405161084a91906109b8565b60405180910390a3505050565b50805461086390610ced565b5f825580601f106108745750610891565b601f0160209004905f5260205f20908101906108909190610894565b5b50565b5b808211156108ab575f815f905550600101610895565b5090565b5f5ffd5b5f5ffd5b5f819050919050565b6108c9816108b7565b81146108d3575f5ffd5b50565b5f813590506108e4816108c0565b92915050565b5f602082840312156108ff576108fe6108af565b5b5f61090c848285016108d6565b91505092915050565b5f8115159050919050565b61092981610915565b82525050565b5f6020820190506109425f830184610920565b92915050565b5f73ffffffffffffffffffffffffffffffffffffffff82169050919050565b5f61097182610948565b9050919050565b61098181610967565b82525050565b5f60208201905061099a5f830184610978565b92915050565b5f819050919050565b6109b2816109a0565b82525050565b5f6020820190506109cb5f8301846109a9565b92915050565b5f81519050919050565b5f82825260208201905092915050565b8281835e5f83830152505050565b5f601f19601f8301169050919050565b5f610a13826109d1565b610a1d81856109db565b9350610a2d8185602086016109eb565b610a36816109f9565b840191505092915050565b5f606082019050610a545f830186610978565b8181036020830152610a668185610a09565b9050610a7560408301846109a9565b949350505050565b610a8681610967565b8114610a90575f5ffd5b50565b5f81359050610aa181610a7d565b92915050565b5f60208284031215610abc57610abb6108af565b5b5f610ac984828501610a93565b91505092915050565b5f5ffd5b5f5ffd5b5f5ffd5b5f5f83601f840112610af357610af2610ad2565b5b8235905067ffffffffffffffff811115610b1057610b0f610ad6565b5b602083019150836001820283011115610b2c57610b2b610ada565b5b9250929050565b5f5f5f60408486031215610b4a57610b496108af565b5b5f610b57868287016108d6565b935050602084013567ffffffffffffffff811115610b7857610b776108b3565b5b610b8486828701610ade565b92509250509250925092565b7f4e6f7420617574686f72697a65643a206f776e6572206f6e6c790000000000005f82015250565b5f610bc4601a836109db565b9150610bcf82610b90565b602082019050919050565b5f6020820190508181035f830152610bf181610bb8565b9050919050565b7f446f63756d656e74206e6f7420666f756e6400000000000000000000000000005f82015250565b5f610c2c6012836109db565b9150610c3782610bf8565b602082019050919050565b5f6020820190508181035f830152610c5981610c20565b9050919050565b7f4e487b71000000000000000000000000000000000000000000000000000000005f52601160045260245ffd5b5f610c97826109a0565b9150610ca2836109a0565b9250828203905081811115610cba57610cb9610c60565b5b92915050565b7f4e487b71000000000000000000000000000000000000000000000000000000005f52602260045260245ffd5b5f6002820490506001821680610d0457607f821691505b602082108103610d1757610d16610cc0565b5b50919050565b7f496e76616c6964206164647265737300000000000000000000000000000000005f82015250565b5f610d51600f836109db565b9150610d5c82610d1d565b602082019050919050565b5f6020820190508181035f830152610d7e81610d45565b9050919050565b7f496e76616c6964206861736800000000000000000000000000000000000000005f82015250565b5f610db9600c836109db565b9150610dc482610d85565b602082019050919050565b5f6020820190508181035f830152610de681610dad565b9050919050565b7f446f63756d656e7420616c7265616479207265676973746572656400000000005f82015250565b5f610e21601b836109db565b9150610e2c82610ded565b602082019050919050565b5f6020820190508181035f830152610e4e81610e15565b9050919050565b7f4d657461646174612055524920726571756972656400000000000000000000005f82015250565b5f610e896015836109db565b9150610e9482610e55565b602082019050919050565b5f6020820190508181035f830152610eb681610e7d565b9050919050565b7f4e487b71000000000000000000000000000000000000000000000000000000005f52604160045260245ffd5b5f819050815f5260205f209050919050565b5f6020601f8301049050919050565b5f82821b905092915050565b5f60088302610f467fffffffffffffffffffffffffffffffffffffffffffffffffffffffffffffffff82610f0b565b610f508683610f0b565b95508019841693508086168417925050509392505050565b5f819050919050565b5f610f8b610f86610f81846109a0565b610f68565b6109a0565b9050919050565b5f819050919050565b610fa483610f71565b610fb8610fb082610f92565b848454610f17565b825550505050565b5f5f905090565b610fcf610fc0565b610fda818484610f9b565b505050565b5b81811015610ffd57610ff25f82610fc7565b600181019050610fe0565b5050565b601f8211156110425761101381610eea565b61101c84610efc565b8101602085101561102b578190505b61103f61103785610efc565b830182610fdf565b50505b505050565b5f82821c905092915050565b5f6110625f1984600802611047565b1980831691505092915050565b5f61107a8383611053565b9150826002028217905092915050565b611093826109d1565b67ffffffffffffffff8111156110ac576110ab610ebd565b5b6110b68254610ced565b6110c1828285611001565b5f60209050601f8311600181146110f2575f84156110e0578287015190505b6110ea858261106f565b865550611151565b601f19841661110086610eea565b5f5b8281101561112757848901518255600182019150602085019450602081019050611102565b868310156111445784890151611140601f891682611053565b8355505b6001600288020188555050505b505050505050565b5f611163826109a0565b915061116e836109a0565b925082820190508082111561118657611185610c60565b5b9291505056fea26469706673582212208421ff01c29443bb3a90b92fd50ddf77ec1dc0a4c9a8b87497a9ed875dcb4de064736f6c634300081c0033a26469706673582212203466b1b225a9f601dba0755283e950241086ae7472753760126b0d03e6c256b764736f6c634300081c0033",
  "linkReferences": {},
  "deployedLinkReferences": {},
  "immutableReferences": {},
  "inputSourceName": "project/contracts/DocumentRegistryFactory.sol",
  "buildInfoId": "solc-0_8_28-41035388ed1db31f14a5c607990165726ba43a12"
}