{
  "_format": "hh3-artifact-1",
  "contractName": "DocumentRegistry",
  "sourceName": "contracts/DocumentRegistry.sol",
  "abi": [
    {
      "inputs": [],
      "stateMutability": "nonpayable",
      "type": "constructor"
    },
    {
      "anonymous": false,
      "inputs": [
        {
          "indexed": true,
          "internalType": "bytes32",
          "name": "docHash",
          "type": "bytes32"
        },
        {
          "indexed": true,
          "internalType": "address",
          "name": "uploader",
          "type": "address"
        },
        {
          "indexed": false,
          "internalType": "uint256",
          "name": "timestamp",
          "type": "uint256"
        }
      ],
      "name": "DocumentRegistered",
      "type": "event"
    },
    {
      "anonymous": false,
      "inputs": [
        {
          "indexed": true,
          "internalType": "bytes32",
          "name": "docHash",
          "type": "bytes32"
        },
        {
          "indexed": true,
          "internalType": "address",
          "name": "revokedBy",
          "type": "address"
        }
      ],
      "name": "DocumentRevoked",
      "type": "event"
    },
    {
      "inputs": [],
      "name": "documentCount",
      "outputs": [
        {
          "internalType": "uint256",
          "name": "",
          "type": "uint256"
        }
      ],
      "stateMutability": "view",
      "type": "function"
    },
    {
      "inputs": [
        {
          "internalType": "bytes32",
          "name": "docHash",
          "type": "bytes32"
        }
      ],
      "name": "getDocument",
      "outputs": [
        {
          "internalType": "address",
          "name": "uploader",
          "type": "address"
        },
        {
          "internalType": "string",
          "name": "metadataURI",
          "type": "string"
        },
        {
          "internalType": "uint256",
          "name": "timestamp",
          "type": "uint256"
        }
      ],
      "stateMutability": "view",
      "type": "function"
    },
    {
      "inputs": [
        {
          "internalType": "bytes32",
          "name": "docHash",
          "type": "bytes32"
        }
      ],
      "name": "isRegistered",
      "outputs": [
        {
          "internalType": "bool",
          "name": "",
          "type": "bool"
        }
      ],
      "stateMutability": "view",
      "type": "function"
    },
    {
      "inputs": [],
      "name": "owner",
      "outputs": [
        {
          "internalType": "address",
          "name": "",
          "type": "address"
        }
      ],
      "stateMutability": "view",
      "type": "function"
    },
    {
      "inputs": [
        {
          "internalType": "bytes32",
          "name": "docHash",
          "type": "bytes32"
        },
        {
          "internalType": "string",
          "name": "metadataURI",
          "type": "string"
        }
      ],
      "name": "registerDocument",
      "outputs": [],
      "stateMutability": "nonpayable",
      "type": "function"
    },
    {
      "inputs": [
        {
          "internalType": "bytes32",
          "name": "docHash",
          "type": "bytes32"
        }
      ],
      "name": "revokeDocument",
      "outputs": [],
      "stateMutability": "nonpayable",
      "type": "function"
    },
    {
      "inputs": [
        {
          "internalType": "address",
          "name": "newOwner",
          "type": "address"
        }
      ],
      "name": "transferOwnership",
      "outputs": [],
      "stateMutability": "nonpayable",
      "type": "function"
    }
  ],
  "bytecode": "0x6080604052348015600e575f5ffd5b505f80546001600160a01b031916331790556109888061002d5f395ff3fe608060405234801561000f575f5ffd5b506004361061007a575f3560e01c8063a5b16b2e11610058578063a5b16b2e146100f7578063b10d6b411461010e578063f2fde38b14610130578063fa17185a14610143575f5ffd5b806327258b221461007e5780638da5cb5b146100b8578063952be80d146100e2575b5f5ffd5b6100a361008c3660046106b9565b5f9081526002602052604090206003015460ff1690565b60405190151581526020015b60405180910390f35b5f546100ca906001600160a01b031681565b6040516001600160a01b0390911681526020016100af565b6100f56100f03660046106b9565b610156565b005b61010060015481565b6040519081526020016100af565b61012161011c3660046106b9565b61028f565b6040516100af939291906106d0565b6100f561013e36600461071b565b6103ab565b6100f5610151366004610748565b61046d565b5f546001600160a01b031633146101b45760405162461bcd60e51b815260206004820152601a60248201527f4e6f7420617574686f72697a65643a206f776e6572206f6e6c7900000000000060448201526064015b60405180910390fd5b5f8181526002602052604090206003015460ff166102095760405162461bcd60e51b8152602060048201526012602482015271111bd8dd5b595b9d081b9bdd08199bdd5b9960721b60448201526064016101ab565b5f81815260026020526040812080546001600160a01b0319168155906102326001830182610667565b505f600282018190556003909101805460ff19169055600180549091829161025b9083906107d3565b9091555050604051339082907f0a7643bfbd115d98595cc7bd15944172c7ef0e4a7f48dcaf676dec4b74be9367905f90a350565b5f81815260026020526040812060030154606090829060ff166102e95760405162461bcd60e51b8152602060048201526012602482015271111bd8dd5b595b9d081b9bdd08199bdd5b9960721b60448201526064016101ab565b5f84815260026020819052604090912080549181015460018201805492936001600160a01b031692909190829061031f906107ec565b80601f016020809104026020016040519081016040528092919081815260200182805461034b906107ec565b80156103965780601f1061036d57610100808354040283529160200191610396565b820191905f5260205f20905b81548152906001019060200180831161037957829003601f168201915b50505050509150935093509350509193909250565b5f546001600160a01b031633146104045760405162461bcd60e51b815260206004820152601a60248201527f4e6f7420617574686f72697a65643a206f776e6572206f6e6c7900000000000060448201526064016101ab565b6001600160a01b03811661044c5760405162461bcd60e51b815260206004820152600f60248201526e496e76616c6964206164647265737360881b60448201526064016101ab565b5f80546001600160a01b0319166001600160a01b0392909216919091179055565b826104a95760405162461bcd60e51b815260206004820152600c60248201526b092dcecc2d8d2c840d0c2e6d60a31b60448201526064016101ab565b5f8381526002602052604090206003015460ff161561050a5760405162461bcd60e51b815260206004820152601b60248201527f446f63756d656e7420616c72656164792072656769737465726564000000000060448201526064016101ab565b8061054f5760405162461bcd60e51b815260206004820152601560248201527413595d1859185d1848155492481c995c5d5a5c9959605a1b60448201526064016101ab565b6040518060800160405280336001600160a01b0316815260200183838080601f0160208091040260200160405190810160405280939291908181526020018383808284375f920182905250938552505042602080850191909152600160409485018190528884526002825293909220845181546001600160a01b0319166001600160a01b039091161781559184015191928301916105ee915082610884565b50604082015160028201556060909101516003909101805460ff19169115159190911790556001805481905f9061062690839061093f565b9091555050604051428152339084907f6569e54c43a697fc61e67763858d5abef16899d2b13215c7c07090aa878b24a89060200160405180910390a3505050565b508054610673906107ec565b5f825580601f10610682575050565b601f0160209004905f5260205f209081019061069e91906106a1565b50565b5b808211156106b5575f81556001016106a2565b5090565b5f602082840312156106c9575f5ffd5b5035919050565b60018060a01b0384168152606060208201525f83518060608401528060208601608085015e5f608082850101526080601f19601f830116840101915050826040830152949350505050565b5f6020828403121561072b575f5ffd5b81356001600160a01b0381168114610741575f5ffd5b9392505050565b5f5f5f6040848603121561075a575f5ffd5b83359250602084013567ffffffffffffffff811115610777575f5ffd5b8401601f81018613610787575f5ffd5b803567ffffffffffffffff81111561079d575f5ffd5b8660208284010111156107ae575f5ffd5b939660209190910195509293505050565b634e487b7160e01b5f52601160045260245ffd5b818103818111156107e6576107e66107bf565b92915050565b600181811c9082168061080057607f821691505b60208210810361081e57634e487b7160e01b5f52602260045260245ffd5b50919050565b634e487b7160e01b5f52604160045260245ffd5b601f82111561087f57805f5260205f20601f840160051c8101602085101561085d5750805b601f840160051c820191505b8181101561087c575f8155600101610869565b50505b505050565b815167ffffffffffffffff81111561089e5761089e610824565b6108b2816108ac84546107ec565b84610838565b6020601f8211600181146108e4575f83156108cd5750848201515b5f19600385901b1c1916600184901b17845561087c565b5f84815260208120601f198516915b8281101561091357878501518255602094850194600190920191016108f3565b508482101561093057868401515f19600387901b60f8161c191681555b50505050600190811b01905550565b808201808211156107e6576107e66107bf56fea26469706673582212209c62a219a5a1cec630e9bc63b8ca437197fa42d0e0c0d0b82448b8f11201baad64736f6c634300081c0033",
  "linkReferences": {},
  "deployedLinkReferences": {},
  "immutableReferences": {},
  "inputSourceName": "project/contracts/DocumentRegistry.sol",
  "buildInfoId": "solc-0_8_28-c329f602df4b55ab758159a5cfa646a2ce61d772"
}